:020000020000FC
:020000001CC022
:02000C0046C0EC
:100038003EC04FEF4DBF48E04EBF4FEF4AB944278F
:1000480040E04093C1004BB94FE047B9442748B955
:1000580046E044B929982A98239824982B9A2C9AF0
:1000680000E010E02227332750E041E04093680089
:1000780048E140936B0042E044BD45E045BD4DE496
:1000880047BD42E040936E007894452F4F7048B9C1
:10009800FCCF4F934FB74F931B9901C053951C99B1
:1000A80001C05A955F704F914FBF4F9118954F936C
:1000B8004FB74F9329982A9844274BB9000000005E
:1000C80000000A3008F00027163008F011273030F9
:1000D80029F030E0412F17D02A9A04C031E0402F90
:1000E80012D0299A2395283C51F4222703950A30E7
:1000F80030F000271395163010F0112700274F9184
:100108004FBF4F9118954030A1F04130A1F04230D7
:10011800A1F04330A1F04430A1F04530A1F04630C1
:10012800A1F04730A1F04830A1F04930A1F04427B0
:1001380013C040EC11C049EF0FC044EA0DC040EBBA
:100148000BC049E909C042E907C042E805C048EFC9
:0C01580003C040E801C040E94BB9089525
:00000001FF
