:020000020000FC
:0400000006C033C043
:10000C0017C00FEF0DBF08E00EBF2FEF2AB92FEF6F
:10001C0027B900E02ED020E024B928E125B921E051
:10002C002093680028E120936B0030E07894FFCF98
:10003C0023B123FF03D024FF06D018950CD01395C1
:10004C001F7006D0089507D01A951F7001D008951F
:10005C00212F28B908952FEF2A95F1F708951395BC
:10006C00143631F410E003950A3008F000E001D0AA
:10007C001895003091F0013091F0023091F003307E
:10008C0091F0043091F0053091F0063091F007308A
:10009C0091F0083091F0093091F02FE311C026E077
:1000AC000FC02BE50DC02FE40BC026E609C02DE6D2
:1000BC0007C02DE705C027E003C02FE701C02FE6DE
:0400CC002BB90895AF
:00000001FF
