:020000020000FC
:020000001CC022
:100038008DC008E00EBF0FEF0DBF0FE104B90FE749
:100048000AB93D9A409A419A429A00E000930E01FB
:1000580000930F01009310010093170100931801FA
:100068000093190100931A0100931B01B8D001E015
:10007800009315010093160108E1009328012ED082
:1000880044D063D173D183D193D102E004BD05E09C
:1000980005BD0CE907BD02E000936E007894C9D154
:1000A80000911901003071F0013071F0023071F0E7
:1000B800033071F0053071F0043071F000E0009306
:1000C8001901EDCFA6D0EBCFBDD0E9CFCAD0E7CF8D
:1000D800D8D0E5CFEFD0E3CFFCD0E1CFF1E0E0E03E
:1000E80000EC019309EF019304EA019300EB0193FB
:1000F80009E9019302E9019302E8019308EF0193EA
:1001080000E8019300E901930895F1E0ECE10FE1C3
:10011800019300912801037011F40DE101C00CE175
:1001280001930FE101930EE101930FE101930EE1B9
:1001380001930FE101930FE101930EE101930FE1A8
:1001480001930EE101930FE1019308950F930FB707
:100158000F931F9310911901103001F500911801A8
:1001680003950436C1F400E00093180100911701CB
:1001780011E001270093170111F0459A01C0459835
:100188000091100103950C3321F400E00093100155
:10019800C1D000931001009318011CC0133031F036
:1001A800153021F0143011F0459814C00091180151
:1001B8000395043669F400E00093180100911701D3
:1001C80011E001270093170111F0459A01C04598E5
:1001D800009318011F910F910FBF0F9118950F935E
:1001E8001F9300911901003019F42C985F980EC0E4
:1001F800013011F0023019F42C985F9A07C00330CF
:1002080019F42C9A5F9802C02C9A5F9A1F910F914B
:1002180008956FD000910A0171D0289A77D069D0DB
:1002280000910B016BD0299A71D063D000910C0119
:1002380065D02A9A6BD05DD000910D015FD02B9AC2
:1002480065D0089556D000910A0158D0289A5ED0FA
:1002580050D000910B0152D0299A58D057D056D07F
:10026800089547D053D052D044D000910C0146D0C5
:100278002A9A4CD03ED000910D0140D02B9A46D0FE
:10028800089537D00091110139D0289A3FD031D044
:100298000091120133D0299A39D02BD00091130143
:1002A8002DD02A9A33D025D00091140127D02B9A2B
:1002B8002DD008951ED00091110120D0289A26D063
:1002C80018D0009112011AD0299A20D01FD01ED020
:1002D80008950FD01BD01AD00CD0009113010ED066
:1002E8002A9A14D006D00091140108D02B9A0ED067
:1002F8000895289829982A982B980895F1E0E0E025
:10030800E00F08F4F39500810BB9089519E11A95E7
:10031800F1F708950F9300910E0103950C3381F4C2
:1003280000E000930E0100910F010395083129F4B4
:1003380000E000930F014DD002C000930F0116D0CA
:1003480000930E0102D00F9108950F931F9300910F
:100358000E0110E00A3018F00A501395FBCF0093F5
:100368000A0110930B011F910F9108950F931F938A
:1003780000910F0110E00A3018F00A501395FBCFD6
:1003880000930C0110930D011F910F9108950F9385
:100398001F930091150110E00A3018F00A501395C8
:1003A800FBCF00931101109312011F910F91089533
:1003B8000F931F930091160110E00A3018F00A50AD
:1003C8001395FBCF00931301109314011F910F9104
:1003D80008950F931F932F93F1E0ECE120911601FC
:1003E8002A95E20F08F4F395108100911501039501
:1003F8000117C1F00117B0F001E000931501009159
:10040800160103950D3051F401E020912801239540
:10041800243609F420E02093280177DE00931601A2
:10042800C7DF02C000931501B2DF2F911F910F9112
:1004380008950F931F932F933F9306B1009507706C
:10044800102F20911A012127212310931A0120FD32
:1004580061D030911901303071F1313029F421FD2A
:1004680063D022FD6BD027C0323029F421FD70D033
:1004780022FD78D020C0333009F41DC0343029F46F
:1004880021FDF5D022FD0CD116C03530A1F421FD97
:10049800C7D022FDD9D0363009F40DC0373029F441
:1004A80021FD96D022FD9ED006C0383021F421FDD2
:1004B800A3D022FDABD03F912F911F910F910895AA
:1004C8000F931F932F9300912F010130F9F400919E
:1004D8003001013099F000910F01109129010117A5
:1004E800A9F400910E0110912A01011779F40091E5
:1004F8001001003059F401E0009330010091180117
:100508000F70083010F02D9801C02D9A2F911F916F
:100518000F91089500911901039506300CF000E041
:10052800009319015CDE089500910E0103950C33C8
:1005380009F400E000930E0108DF089500910E0110
:10054800003009F40CE30A9500930E01FEDE0895CD
:1005580000910F010395083109F400E000930F01A1
:1005680005DF089500910F01003009F408E10A95AC
:1005780000930F01FBDE08952CDF0895009115010B
:10058800013009F510911601113069F41CE010933F
:10059800160120912801203009F423E62A9520939A
:1005A8002801B3DD03C01A9510931601F1E0ECE1C0
:1005B800209116012A95E20F08F4F3950081009323
:1005C8001501F6DE03C00A9500931501E0DE0895D3
:1005D800009129010395083109F400E000932901ED
:1005E80089D0089500912901003009F408E10A959D
:1005F800009329017FD0089500912A0103950C33B7
:1006080009F400E000932A0164D0089500912A01BA
:10061800003009F40CE30A9500932A015AD0089592
:10062800009115010395F1E0ECE1109116011A957E
:10063800E10F08F4F3951081011708F401C001E0F7
:1006480000931501A4DE089500911501013051F4BD
:10065800F1E0ECE1109116011A95E10F08F4F39519
:10066800008101C00A950093150191DE089500915B
:10067800160103950D3009F401E000931601F1E02D
:10068800ECE10A95E00F08F4F3951081009115014B
:10069800011708F403C01093150179DE89DE089567
:1006A80000911601013009F40CE00A950093160137
:1006B800F1E0ECE10A95E00F08F4F3951081009160
:1006C8001501011708F403C01093150160DE70DEF0
:1006D80008950F931F9300912A0110E00A3018F033
:1006E8000A501395FBCF00932B0110932C011F91F7
:1006F8000F9108950F931F930091290110E00A307C
:1007080018F00A501395FBCF00932D0110932E017A
:060718001F910F910895EE
:00000001FF
