:020000020000FC
:020000001CC022
:1000380061C008E00EBF0FEF0DBF0FE004B90FE776
:100048000AB93D9A01E000930E0100930F0108E1FF
:1000580000931F0100E0009310010093110103E0D9
:100068000093120126D00ED0DBD0EBD002E004BD05
:1000780005E005BD0CE907BD02E000936E00789429
:1000880056D0FECFF1E0E0E000EC019309EF0193D8
:1000980004EA019300EB019309E9019302E9019352
:1000A80002E8019308EF019300E8019300E9019346
:1000B8000895F1E0E3E10FE1019300911F0103705E
:1000C80011F40DE101C00CE101930FE101930EE180
:1000D80001930FE101930EE101930FE101930FE109
:1000E80001930EE101930FE101930EE101930FE1FA
:1000F800019308950F931F930FB70F930091110168
:100108000395043669F400E0009311010091100191
:1001180011E001270093100111F0459A01C045989C
:10012800009311010F910FBF1F910F91189518D0CF
:1001380000910A011AD0289A20D012D000910B0100
:1001480014D0299A1AD00CD000910C010ED02A9AFA
:1001580014D006D000910D0108D02B9A0ED0089526
:10016800289829982A982B980895F1E0E0E0E00F64
:1001780008F4F39500810BB9089519E11A95F1F780
:1001880008950F931F932F93F1E0E3E120910F015E
:100198002A95E20F08F4F395108100910E0103955A
:1001A8000117BCF0B1F001E000930E0100910F01BE
:1001B80003950D3051F401E020911F012395243659
:1001C80009F420E020931F0174DF00930F0139D058
:1001D80002C000930E0124D02F911F910F91089512
:1001E8000F931F932F9300910F0103950D3009F47E
:1001F80001E000930F0125D0F1E0E3E10A95E00F5B
:1002080008F4F395108100910E0101172CF021F0EC
:10021800012F00930E0104D02F911F910F91089583
:100228000F931F9300910E0110E00A3018F00A5046
:100238001395FBCF00930A0110930B011F910F91A7
:1002480008950F931F9300910F0110E00A3018F0E2
:100258000A501395FBCF00930C0110930D011F91C9
:040268000F91089555
:00000001FF
