:020000020000FC
:020000001CC022
:10003800A8C008E00EBF0FEF0DBF0FE104B90FE72E
:100048000AB93D9A409A419A429A259A2D9800E019
:1000580000930E0100930F01009310010093170104
:10006800009318010093190100931A0100931B01D2
:10007800D1D001E0009315010093160108E1009327
:10008800280107E00093290100E000932A0100936A
:100098002F01009330013DD053D0BCD1CCD1FED13B
:1000A8000ED2DAD1EAD102E004BD05E005BD0CE9C3
:1000B80007BD02E000936E0078946AD2A0D2009146
:1000C80019010030A1F00130A1F00230A1F0033095
:1000D800A1F00530A1F00430A1F00630A1F00730FE
:1000E800A1F00830A1F000E000931901E6CFACD0F0
:1000F800E4CFC3D0E2CFD0D0E0CFDED0DECFF5D092
:10010800DCCF02D1DACF10D1D8CF39D1D6CF47D171
:10011800D4CFF1E0E0E000EC019309EF019304EAA9
:10012800019300EB019309E9019302E9019302E8C5
:10013800019308EF019300E8019300E90193089502
:10014800F1E0ECE10FE1019300912801037011F453
:100158000DE101C00CE101930FE101930EE1019360
:100168000FE101930EE101930FE101930FE1019378
:100178000EE101930FE101930EE101930FE1019369
:1001880008950F930FB70F931F9310911901103013
:1001980001F50091180103950436C1F400E00093BD
:1001A80018010091170111E001270093170111F0C0
:1001B800459A01C045980091100103950C3321F42C
:1001C80000E0009310010BD1009310010093180177
:1001D8001CC0133031F0153021F0143011F045985F
:1001E80014C0009118010395043669F400E00093E7
:1001F80018010091170111E001270093170111F070
:10020800459A01C04598009318011F910F910FBF9F
:100218000F9118950F931F9300911901003019F44D
:100228002C985F980EC0013011F0023019F42C9808
:100238005F9A07C0033019F42C9A5F9802C02C9A71
:100248005F9A1F910F910895B9D000910A01BBD010
:10025800289AC1D0B3D000910B01B5D0299ABBD050
:10026800ADD000910C01AFD02A9AB5D0A7D000919B
:100278000D01A9D02B9AAFD00895A0D000910A0102
:10028800A2D0289AA8D09AD000910B019CD0299A84
:10029800A2D0A1D0A0D0089591D09DD09CD08ED0CE
:1002A80000910C0190D02A9A96D088D000910D0127
:1002B8008AD02B9A90D0089581D00091110183D0D3
:1002C800289A89D07BD0009112017DD0299A83D0B9
:1002D80075D00091130177D02A9A7DD06FD0009104
:1002E800140171D02B9A77D0089568D0009111012C
:1002F8006AD0289A70D062D00091120164D0299AED
:100308006AD069D068D0089559D065D064D056D0E5
:100318000091130158D02A9A5ED050D00091140150
:1003280052D02B9A58D0089549D000912B014BD028
:10033800289A51D043D000912C0145D0299A4BD00E
:100348003DD000912D013FD02A9A45D037D0009159
:100358002E0139D02B9A3FD020911901263071F403
:1003680006B10095027010911A010127027031F050
:1003780000912F0111E0012700932F0108951ED04D
:100388002AD029D01BD000912D011DD02A9A23D024
:1003980015D000912E0117D02B9A1DD008950ED09C
:1003A80000912B0110D0289A16D008D000912C016A
:1003B8000AD0299A10D00FD00ED0089528982998DD
:1003C8002A982B980895F1E0E0E0E00F08F4F395FF
:1003D80000810BB9089519E11A95F1F708950F9363
:1003E80000910E0103950C3381F400E000930E0197
:1003F80000910F010395083129F400E000930F01E3
:100408006FD002C000930F0116D000930E0102D0E6
:100418000F9108950F931F9300910E0110E00A3079
:1004280018F00A501395FBCF00930A0110930B01A3
:100438001F910F9108950F931F9300910F0110E0E2
:100448000A3018F00A501395FBCF00930C01109353
:100458000D011F910F9108950F931F9300912A0189
:1004680010E00A3018F00A501395FBCF00932B01C7
:1004780010932C011F910F9108950F931F930091D2
:10048800290110E00A3018F00A501395FBCF0093A9
:100498002D0110932E011F910F9108950F931F9313
:1004A8000091150110E00A3018F00A501395FBCF9F
:1004B80000931101109312011F910F9108950F934A
:1004C8001F930091160110E00A3018F00A50139596
:1004D800FBCF00931301109314011F910F910895FE
:1004E8000F931F932F93F1E0ECE1209116012A95C9
:1004F800E20F08F4F3951081009115010395011797
:10050800C1F00117B0F001E0009315010091160148
:1005180003950D3051F401E02091280123952436EC
:1005280009F420E0209328010BDE00931601C7DFB1
:1005380002C000931501B2DF2F911F910F9108950A
:10054800009129010395083109F400E0009329017D
:1005580094DF089500912901003009F408E10A9513
:10056800009329018ADF089500912A0103950C332D
:1005780009F400E000932A016FDF089500912A0131
:10058800003009F40CE30A9500932A0165DF089509
:100598000F931F932F933F9306B100950770102F69
:1005A80020911A012127212310931A0120FD51D0EF
:1005B800309119013030F1F0313029F421FD5CD04F
:1005C80022FD64D017C0323029F421FD69D022FD04
:1005D80071D010C0333009F40DC0343029F421FD36
:1005E800C6D022FDDDD006C0353021F421FD98D0DB
:1005F80022FDAAD03F912F911F910F9108950F933B
:100608001F932F9300912F010130F9F400913001CD
:10061800013099F000910F01109129010117A9F4F7
:1006280000910E0110912A01011779F4009110012F
:10063800003059F401E000933001009118010F7067
:10064800083010F02D9801C02D9A2F911F910F910D
:10065800089500913001013029F42D9800E00093AD
:100668003001089500911901039509300CF000E05C
:1006780000931901CFDD089500910E0103950C3305
:1006880009F400E000930E01C5DE089500910E0103
:10069800003009F40CE30A9500930E01BBDE0895BF
:1006A80000910F010395083109F400E000930F0150
:1006B800C2DE089500910F01003009F408E10A959F
:1006C80000930F01B8DE08950BDF0895009115011E
:1006D800013009F510911601113069F41CE01093EE
:1006E800160120912801203009F423E62A95209349
:1006F800280126DD03C01A9510931601F1E0ECE1FC
:10070800209116012A95E20F08F4F39500810093D1
:100718001501D5DE03C00A9500931501BFDE0895C3
:10072800009115010395F1E0ECE1109116011A957D
:10073800E10F08F4F3951081011708F401C001E0F6
:1007480000931501ABDE089500911501013051F4B5
:10075800F1E0ECE1109116011A95E10F08F4F39518
:10076800008101C00A950093150198DE0895009153
:10077800160103950D3009F401E000931601F1E02C
:10078800ECE10A95E00F08F4F3951081009115014A
:10079800011708F403C01093150180DE90DE089558
:1007A80000911601013009F40CE00A950093160136
:1007B800F1E0ECE10A95E00F08F4F395108100915F
:1007C8001501011708F403C01093150167DE77DEE1
:0207D800089582
:00000001FF
