:020000020000FC
:1000000005C04079243019120278001008E00EBFB4
:100010000FEF0DBF00E007B906E008B990E090933C
:10002000C1000FEF0AB905E005BD06E006BD1127C6
:10003000662777273FEF4FEF33D005B300FD01C0B0
:10004000FCCF01E005BB73957A3038F077276395D4
:100050006F70611711F46627349A06E006BD01D06F
:10006000ECCF26B1522F5095547011F032FD09D0CB
:10007000522F5095527011F041FD0AD0322F422F6D
:10008000089514D01395103109F4112709D008955B
:100090000DD0112311F41FE003C01A9501D008956B
:1000A000F0E0E2E0E10F04910BB9089584E69FEFE0
:0A00B0009A95F1F78A95D9F70895A3
:00000001FF
