:020000020000FC
:1000000008C03F065B4F666D7D077F6F777C395E6A
:10001000797108E00EBF0FEF0DBF00E004B908E1F1
:1000200005B990E09093C1000FEF0AB900E107B95C
:1000300005E005BD06E006BD1127662777273FEFDF
:100040004FEF34D005B300FD01C0FCCF01E005BB8C
:1000500073957A3040F0772763956F7068B96117B0
:1000600011F46627349A06E006BD01D0EBCF23B128
:10007000522F5095587011F033FD09D0522F5095E2
:10008000507111F044FD0AD0322F422F089514D040
:100090001395103109F4112709D008950DD01123BB
:1000A00011F41FE003C01A9501D00895F0E0E2E0DA
:1000B000E10F04910BB9089584E69FEF9A95F1F74B
:0600C0008A95D9F70895AE
:00000001FF
