:020000020000FC
:020000001CC022
:100038003AC008E00EBF0FEF0DBF0FE004B90FE79D
:100048000AB93D9A00E000930E0100930F01009356
:10005800100100931101009312010ED08BD09BD098
:1000680002E004BD05E005BD0CE907BD02E0009310
:100078006E0078943ED0FECFF1E0E0E000EC019312
:1000880009EF019304EA019300EB019309E9019355
:1000980002E9019302E8019308EF019300E8019354
:1000A80000E9019308950F930FB70F930091120180
:1000B80003950436C1F400E0009312010091110188
:1000C80011E001270093110111F0459A01C04598EC
:1000D8000091100103950C3321F400E00093100106
:1000E80032D000931001009312010F910FBF0F91AE
:1000F800189518D000910A011AD0289A20D012D049
:1001080000910B0114D0299A1AD00CD000910C013F
:100118000ED02A9A14D006D000910D0108D02B9A3F
:100128000ED00895289829982A982B980895F1E0D8
:10013800E0E0E00F08F4F39500810BB9089519E1A8
:100148001A95F1F708950F9300910E0103950C335A
:1001580061F400E000930E0100910F01039508314E
:1001680009F400E000930F0116D000930E0102D0AD
:100178000F9108950F931F9300910E0110E00A301C
:1001880018F00A501395FBCF00930A0110930B0146
:100198001F910F9108950F931F9300910F0110E085
:1001A8000A3018F00A501395FBCF00930C011093F6
:0801B8000D011F910F91089544
:00000001FF
