:020000020000FC
:020000001AC024
:1000340090C108E00EBF0FEF0DBF0FEF0AB90FE23A
:1000440004B900E007B907E008B900E00093000133
:100054000093010100930201009303010093040142
:100064000093050100930601009307010093080122
:100074000093090100930A0100930B0100930C0102
:1000840000930D0100930E0100930F012D9802E0DF
:1000940004BD05E005BD0BE907BD02E000936E0059
:1000A400789430E0303049F0363009F13730B9F126
:1000B400383001F04CD030E0F5CF6DD03AD100911A
:1000C40003010CD1299A3AD134D10091040106D10B
:1000D400289A34D12ED10091050100D12B9A2ED12A
:1000E40028D100910601FAD02A9A28D1DBCF53D027
:1000F40020D100910901F2D0299A20D11AD100917E
:100104000A01ECD0289A1AD114D10BE0E7D02B9A2B
:1001140015D10FD10BE0E2D02A9A10D1C3CF3BD036
:1001240008D10BE0DBD0299A09D103D10BE0D6D05A
:10013400289A04D1FED000910B01D0D02B9AFED086
:10014400F8D000910C01CAD02A9AF8D0ABCF23D0B2
:10015400F0D008E80BB9289AF1D0EBD007EC0BB932
:10016400299AECD0E6D000910E01013051F400EC54
:100174000BB92A9AE3D0DDD00BEA0BB92B9ADED067
:1001840091CF00EC0BB92A9AD9D0D3D00EE80BB991
:100194002B9AD4D087CF26B12095277022FF17C081
:1001A40000910F01013019F460D030E02CC03030E0
:1001B40011F436E028C0363011F437E024C037306B
:1001C40011F438E020C03830F1F430E01CC0009164
:1001D4000F01013021F4203011F047D014C0363023
:1001E40029F420FD11D021FD19D00DC0373029F498
:1001F40020FD1ED021FD26D006C0383021F420FD7C
:100204002BD021FD2DD008950091070103950C33C7
:1002140009F400E00093070147D008950091070115
:10022400003009F40CE30A95009307013DD00895CA
:10023400009108010395083109F400E000930801D6
:1002440040D0089500910801003009F408E10A95AE
:100254000093080136D0089501E000930E0108953B
:1002640000E000930E0101D0089500E000930F0117
:100274002D9808950091020110E00A3018F00A50F8
:100284001395FBCF00930501109306010895009187
:10029400010110E00A3018F00A501395FBCF0093C7
:1002A40003011093040108950091070110E00A303E
:1002B40018F00A501395FBCF0093090110930A011B
:1002C40008950091080110E00A3018F00A501395BF
:1002D400FBCF00930B0110930C010895003011F42F
:1002E40010EC25C0013011F419EF21C0023011F4D3
:1002F40014EA1DC0033011F410EB19C0043011F4DA
:1003040019E915C0053011F412E911C0063011F4D1
:1003140012E80DC0073011F418EF09C0083011F4C9
:1003240010E805C0093011F410E901C01FEF1BB932
:100334000895289829982A982B9808954F935F93A5
:1003440040E15FEF5A95F1F74A95D9F75F914F91E4
:1003540008950F930FB70F930091000103950C3389
:1003640099F400E01091010113951C3351F410E04D
:10037400209102012395283109F420E02093020101
:1003840079DF1093010183DF0093000104D00F9102
:100394000FBF0F91189500910E010130A1F4009147
:1003A400020110910801011771F4009101011091EB
:1003B4000701011741F400910001003021F401E02C
:0803C40000930F012D9A08952A
:00000001FF
