:020000020000FC
:1000000005C0C0F9A4B0999282F8809008E00EBFB4
:100010000FEF0DBF00E007B906E008B990E090933C
:10002000C1000FEF0AB900E107B905E005BD06E020
:1000300006BD1127662777273FEF4FEF34D005B372
:1000400000FD01C0FCCF01E005BB73957A3040F0A4
:10005000772763956F7068B9611711F46627349A32
:1000600006E006BD01D0EBCF26B1522F509552705D
:1000700011F031FD09D0522F5095547011F042FD0E
:100080000AD0322F422F089514D01395103109F45D
:10009000112709D008950DD0112311F41FE003C0DA
:1000A0001A9501D00895F0E0E2E0E10F04910BB958
:1000B000089584E69FEF9A95F1F78A95D9F7089508
:00000001FF
