:020000020000FC
:020000001CC022
:1000380030C008E00EBF0FEF0DBF0CE004B90FE7AA
:100048000AB906E008B911E0442755273ED000E474
:1000580007BD02E004BD05E005BD02E000936E00A7
:10006800F1E0E0E000EC019309EF019304EA019369
:1000780000EB019309E9019302E9019302E8019376
:1000880008EF019300E8019300E90193789426D0E2
:10009800FECF0F930FB70F9304D00F910FBF0F919F
:1000A800189550FF09C0F1E0E0E0E20F00810BB9BC
:1000B8002B982A9A50E00895F1E0E0E0E30F0081E0
:1000C8000BB92A982B9A51E00895012F30E00A3095
:1000D80018F00A503395FBCF202F089506B10095EC
:1000E8000670602F64276023402F61FD03D062FDF6
:1000F80007D0089513951D3008F011E0E6DF089544
:0C0108001A95103009F41CE0E0DF0895A7
:00000001FF
