:020000020000FC
:1000000000C00FEF0DBF0FE004B909E007B900EF22
:100010000AB906E007B90FE00AB900E107B900E143
:1000200004B933271127222735B91BB92BB92C98CE
:100030000E941E0035B90E945600FACF339B0E94E1
:100040002E00309B0E943400319B0E943A00329B6C
:100050000E944000349B0E944A000895339530313D
:10006000A9F00E945C000895303009F03A950E9492
:100070005C0008951395103159F00E945C000895BA
:10008000103009F01A950E945C00089533270895F6
:1000900011270895232F210F203118F02C9A2F704B
:1000A00001C02C982BB90E945C0008954BB14F7091
:1000B0001295412B4BB9089544E64A95F1F70895FE
:00000001FF
